:020000040800F2
:1000000018070020DD01000805130008E1120008B0
:1000100001130008510A0008AD1A00080000000092
:10002000000000000000000000000000271700088A
:10003000550A000800000000D31500083918000810
:10004000F7010008F7010008F7010008F7010008B0
:10005000F7010008F7010008F7010008F7010008A0
:10006000F7010008F7010008F7010008F701000890
:10007000F7010008F7010008F7010008F701000880
:10008000F7010008F7010008F7010008F701000870
:10009000F7010008F7010008F7010008F701000860
:1000A000F7010008F7010008F7010008F701000850
:1000B000F7010008F7010008F7010008F701000840
:1000C000F7010008F7010008F7010008F701000830
:1000D000F7010008F70100089D180008F701000863
:1000E000F7010008F7010008F7010008F701000810
:1000F000F7010008F7010008F7010008F701000800
:10010000F7010008F7010008F7010008F7010008EF
:10011000F7010008F7010008F7010008F7010008DF
:10012000F7010008F7010008F7010008F7010008CF
:1001300000F002F800F043F80AA090E8000C8244B6
:100140008344AAF10107DA4501D100F038F8AFF293
:10015000090EBAE80F0013F0010F18BFFB1A43F0A5
:10016000010318478C1B0000AC1B0000103A24BF91
:1001700078C878C1FAD8520724BF30C830C144BF0C
:1001800004680C607047000000230024002500264E
:10019000103A28BF78C1FBD8520728BF30C148BFEA
:1001A0000B607047642900F0A580002070471FB5E0
:1001B0009DE8030000F0C8FA1FBD10B510BD00F0A7
:1001C000C9FB1146FFF7F3FF01F062FD00F0E7FB0A
:1001D00003B4FFF7F2FF03BC00F014FC09488047AA
:1001E00009480047FEE7FEE7FEE7FEE7FEE7FEE719
:1001F000FEE7FEE7FEE7FEE704480549054A064B31
:10020000704700003D180008310100081801002067
:1002100018070020180300201803002070B50646B8
:1002200000F076FA056806F10B0020F00704B442EE
:100230009CBF002070BD2B466A68BAB11068A0420E
:1002400010D304F1080188423CBF5068586007D3BE
:100250005168101941601168091B016058601460F1
:10026000101D70BD13465268002AE7D1214628466A
:1002700000F056FA0028DED170BD70B50446051FA7
:1002800000F046FA0068002C14BF446870BD002CD2
:1002900018BFAC423CBF20466468F8D301680A1816
:1002A000AA4218BF456003D12A680546114401607F
:1002B00028684119A1421CBF6C6070BD616869600B
:1002C00021680844286070BD0FB41CB5084B06AA0D
:1002D0007B4469460090059800F0CBFA0446002064
:1002E000694600F0D9FA20461CBC5DF814FB0000FA
:1002F000C50500002DE9F041064600241068752967
:10030000314616A510D0AFF30080002802DA404233
:1003100013A507E031688A0701D512A502E0490755
:1003200004D511A5012401E0AFF3008000210A22C9
:1003300006F1240709E0B0FBF2FCB0FBF2F302FB8C
:100340001C00303078541846491C0028F3D123464D
:100350002A463046BDE8F04100F02CBA000000000B
:100360002D0000002B000000200000002DE9F05FB0
:10037000894604464FF0000ADFF874B1FB44C0F828
:1003800020A02046E1688847002874D0252806D0A0
:10039000D4E901219047206A401C2062F1E7002641
:1003A0005F462046E16888472028054607DB312D57
:1003B00005D2781910F8200C08B10643F1E7B00710
:1003C00001D526F00406C4F81CA00027C4F818A024
:1003D0002A2D09D0284601F0F1FB38B304EB870839
:1003E000303DC8F8185019E059F8041B204604EBBA
:1003F00087029161E1688847012F054618D1E069BD
:10040000002820DA26F020061DE0D8F8180000EBBE
:10041000800005EB40003038C8F818002046E1683D
:100420008847054601F0CAFB0028EED1012F0AD00B
:100430002E2D08D12046E16888477F1C0546022FF3
:1004400046F02006C4DBA069002803DA404246F0EB
:100450000106A061F00701D026F010066C2D0BD02C
:10046000682D09D04C2D39D06A2D35D0742D35D05A
:100470007A2D33D016E038E0E1682F4620468847D1
:10048000B842054609D16C2F26D04FF48060E16850
:10049000064320468847054604E06C2F1AD04FF4E7
:1004A000807006430DB3A5F14100192802D820350C
:1004B00046F400664A462946204626604E46FFF727
:1004C00071FE80B101280BD0F61D26F0070000F167
:1004D000080956E74020E4E78020D8E70020D6E767
:1004E00006F104094DE7284652E7206ABDE8F09F6F
:1004F0005E190000401ECAB210F8011F8A4202D0E5
:100500000029F9D10020704710B5431E13F8014FA0
:10051000002CFBD105E011F8014B002C03F8014B36
:1005200003D0521EF7D20021197010BD30B5054618
:100530000B462A4613F8014B12F8010B08B1A042F2
:10054000F8D01CB1002802D06D1CF1E7284630BD60
:1005500040EA0103024630B59B0710D14FF0013449
:1005600000E008C208C91D1B9D4315EAC41FF8D04E
:1005700013F0FF0102F8011B0DD01B0AF8E711F878
:10058000013B002B02F8013B05D011F8013B002B89
:1005900002F8013BF3D130BD10B5431C02E010F866
:1005A000011B71B18107FAD14FF0013202C88C1AD8
:1005B0008C4314EAC211F9D0C01A0A0603D0C01E37
:1005C00010BDC01A10BD0A0401D0801E10BD090262
:1005D000FCD0401E10BD421E12F8013F002BFBD183
:1005E00011F8013B002B02F8013BF9D17047032AB7
:1005F00040F2308010F0030C00F0158011F8013B40
:10060000BCF1020F624498BF11F801CB00F8013B26
:1006100038BF11F8013BA2F1040298BF00F801CBEA
:1006200038BF00F8013B11F0030300F03A81083AAB
:10063000C0F0088051F8043B083A51F804CBA0E818
:100640000810F5E7121D5CBF51F8043B40F8043B6D
:10065000AFF30080D20724BF11F8013B11F801CBA2
:1006600048BF11F8012B24BF00F8013B00F801CB73
:1006700048BF00F8012B70474FF000020429C0F07A
:10068000128010F0030C00F01B80CCF1040CBCF1C4
:10069000020F18BF00F8012BA8BF20F8022BA1EB16
:1006A0000C0100F00DB85FEAC17C24BF00F8012BFB
:1006B00000F8012B48BF00F8012B70474FF00002F3
:1006C00000B5134694469646203922BFA0E80C5048
:1006D000A0E80C50B1F12001BFF4F7AF090728BF23
:1006E000A0E80C5048BF0CC05DF804EB890028BF9F
:1006F00040F8042B08BF704748BF20F8022B11F0C8
:10070000804F18BF00F8012B704770477047704743
:1007100000487047BC000020704770477047704722
:1007200038B504460A4600206946AFF30080002829
:1007300008BF38BD02460099204600F0E9F80120C4
:1007400038BD012000F0FEB8F8B5AFF300800546D3
:1007500000200C46102000BF0646A819A0420DD963
:10076000324669460020AFF30080070008BF00F062
:10077000E9F80098A04218BF0546C419FFF7C8FF62
:1007800005600746F01D20F007004619284600F0D6
:100790000AF8B44208BFF8BDA21B31463868BDE86C
:1007A000F84000F0B5B800210160C0E901107047C1
:1007B000102070472DE9F0470D46994692460446B1
:1007C00000F124080168880604D5E06921F01001D1
:1007D000216000E00120A84201DD471B00E0002766
:1007E000A1697A1902EB0900081AA0612078C006F5
:1007F00002D42046AFF30080002608E0D4E90121AE
:100800001AF806009047206A401C761C20624E456C
:10081000F4DB2078C0060AD52046AFF3008006E05E
:10082000D4E9012130209047206A401C2062381E04
:10083000A7F10107F4DC07E0D4E9012118F805006D
:100840009047206A401C2062281EA5F10105F3DCB8
:100850002046AFF300802078000602D50220BDE8D4
:10086000F0870120FBE7000001694A1C026108785B
:10087000704700B58FB0CDE90131002105910549E0
:100880007944CDE9031011466846FFF76FFD0FB0BC
:1008900000BD0000E5FFFFFF0A6802F8010B0A60D7
:1008A000704710B5203AC0F00B80B1E81850203ADC
:1008B000A0E81850B1E81850A0E81850BFF4F5AF00
:1008C0005FEA027C24BFB1E81850A0E8185044BF8A
:1008D00018C918C0BDE810405FEA827C24BF51F8F7
:1008E000043B40F8043B08BF7047D20728BF31F8EB
:1008F000023B48BF11F8012B28BF20F8023B48BF3C
:1009000000F8012B7047000000487047B400002039
:10091000034640688C46002818BF88423CBF034607
:100920004068F8D318681844884207D00CF10300D7
:1009300020F00700001D411A521A0146081D0A60E6
:10094000FFF79BBC10B500F035F8BDE8104000F093
:100950002CB870477546FFF7D7FFAE4605006946CD
:10096000534620F00700854618B020B5FFF744FC39
:10097000BDE820404FF000064FF000074FF00008A0
:100980004FF0000B21F00701AC46ACE8C009ACE821
:10099000C009ACE8C009ACE8C0098D467047044600
:1009A000AFF300802046FFF713FC002801D000F0D1
:1009B00029B8704710B5012805D0002103A000F028
:1009C00027F8012010BD09A1F8E70000534947525C
:1009D000544D454D3A204F7574206F66206865610F
:1009E00070206D656D6F7279000000003A204865D7
:1009F0006170206D656D6F727920636F72727570B2
:100A00007465640001491820ABBEFEE726000200B1
:100A100070B505460C460A2000E06D1C00F011F888
:100A200035B128780028F8D102E0641C00F009F8FC
:100A300014B120780028F8D1BDE870400A20AFF347
:100A4000008008B569468DF800000320ABBE08BDE4
:100A500000BFFEE7704710B50446207B012802D195
:100A60002068FFF70AFC002020606060A06020730F
:100A700010BD70B504460E460025206898B90120C7
:100A800020733046FFF7CAFB20602068E0B10020E9
:100A90006060A66003E00020216848556D1CA068D6
:100AA000A842F8D810E00220207303E0002021685B
:100AB00048556D1CA068A842F8D800206060A06866
:100AC000B04201D20020206070BD2DE9F047804681
:100AD0000E4691461D46089C70190DB1062100E096
:100AE00002214718791D2046FFF7C3FF206810B97F
:100AF0000120BDE8F087B0216268501C606020686A
:100B00008154A1888AB23946206801F040F86168B2
:100B10000844606031126268501C60602068815433
:100B20006268501C606020688654D4E900128818FE
:100B300032464146FFF75BFD60683044606015B3A4
:100B4000290E6268501C606020688154C5F307411B
:100B50006268501C606020688154C5F30721626898
:100B6000501C6060206881546268501C606020687E
:100B70008554D4E9001288182A464946FFF737FD04
:100B80006068284460600020B3E700002DE9F0476A
:100B90008046894617461C464046FFF7FDFCC5B215
:100BA0004846FFF7F9FCC6B238212046FFF761FF3F
:100BB000206810B90120BDE8F08710202168087076
:100BC0006068401C606005F10D0030442168487089
:100BD0006068401C606000202168887003202168E4
:100BE000C8706068801C60602168081D032221A114
:100BF000FFF78AFC6068C01C606001202168C87132
:100C00006068401C60604020216808726068401C79
:100C10006060380A2168487221688F726068801CA1
:100C2000606000202168C87221680D736068801CB4
:100C30006060216801F10D002A464146FFF764FC1F
:100C4000606828446060002105F10D00226811549D
:100C5000401C226816546068801C606021680F3157
:100C6000481932464946FFF74FFC606830446060DF
:100C70000020A0E7454450002DE9F84F81460D467D
:100C800017461E460A9C002000904846FFF784FC49
:100C900000F0FF08022E03D117B90120BDE8F88F3C
:100CA000022E09D13846FFF777FC00F10F0A5146B2
:100CB0002046FFF7DEFE04E005F118012046FFF7AD
:100CC000D8FE206808B90220E8E780216268501C3D
:100CD000606020688154B9F1000F3ED0022E06D129
:100CE0003846FFF759FC0C302844009003E005F12A
:100CF000080040440090A1888AB22068009900F062
:100D000046FF616808446060C0216268501C6060F2
:100D10002068815400216268501C60602068815402
:100D20006168481C6060206800F80180D4E9001206
:100D3000881842464946FFF7E7FB60684044606018
:100D400055216268501C606020688154AA21626845
:100D5000501C60602068815425E0022E06D1384680
:100D6000FFF71AFC0A302844009001E0A81D00900B
:100D7000A1888AB22068009900F009FF61680844E0
:100D8000606040216268501C606020688154552179
:100D90006268501C606020688154AA216268501CFF
:100DA0006060206881546168481C60602068465417
:100DB000022E3AD13846FFF7EFFB00F0FF0A4FF062
:100DC000000B00216268501C6060206881546168DB
:100DD000481C6060206800F801A00AE017F80B10BA
:100DE0006268501C6060206881540BF1010000F0C3
:100DF000FF0BD345F2DB290E6268501C606020684F
:100E00008154C5F307416268501C606020688154BA
:100E1000C5F307216268501C6060206881546268D5
:100E2000501C6060206885540BE0C5F307216268A0
:100E3000501C6060206881546268501C60602068AB
:100E4000855400202AE72DE9F84305460E4617464B
:100E50009846DDF820900020009000242046641C75
:100E6000285CA02802D00120BDE8F883A2B2694620
:100E7000284600F039FC0446601C08B90220F3E75C
:100E8000601C285C295D40EA01203880A41C398858
:100E9000481CFFF7C3F93060306808B90320E3E766
:100EA0003A88511C3068FFF7E7FB3A882919306807
:100EB000FFF79DFB38880444285D0106601C285C10
:100EC00041EA0041A01C285C41EA0020E11C695C69
:100ED0000843C9F80000241DD9F80010481CFFF78A
:100EE0009DF9C8F80000D8F8000020B93068FFF775
:100EF000C4F90420B8E7D9F80020511CD8F8000044
:100F0000FFF7BAFB2919D9F80020D8F80000FFF73D
:100F10006EFBD9F8000004440020A5E70146C8781C
:100F2000704701460878704710B580210348FFF7E5
:100F3000A3FB00200249088010BD000034000020FF
:100F40002C00002070B50546002400BF00F01AF9FF
:100F500080B90DA10E48FFF7E9FA044654B13A21D1
:100F60002046FFF7C7FA044614B1641C204670BD42
:100F70000020FCE7052000F04BFE2800A5F1010150
:100F80008DB2E3D100BFF2E74950442C00000000CD
:100F90003400002008B50121042000F02BFB1020B4
:100FA0008DF803008002ADF8000003208DF80200E8
:100FB0006946284800F000F900224FF48041254896
:100FC00000F089F94FF4FA7000F022FE012291033B
:100FD000204800F080F94FF4FA7000F019FEFFF796
:100FE000A3FF03E04FF4FA7000F012FE1AA11BA059
:100FF00000F07AF80028F5D103E04FF4FA7000F021
:1010000007FE15A117A000F06FF80028F5D103E046
:101010004FF4FA7000F0FCFD0FA116A000F064F888
:101020000028F5D103E04FF4FA7000F0F1FD15A1AE
:1010300016A000F059F80028F5D103E04FF4FA703B
:1010400000F0E6FD1CA11EA000F04EF80028F5D12E
:1010500008BD0000001001404F4B000041540D0A34
:101060000000000041542B43574D4F44453D310D86
:101070000A00000041542B4357444843503D312C53
:10108000310D0A00474F54204950000041542B4372
:10109000574A41503D2254656E64615F3538353999
:1010A0003730222C22313939376865736F6E6766A5
:1010B00061220D0A00000000434F4E4E454354008C
:1010C00041542B43495053544152543D22544350B0
:1010D000222C223138332E3233302E34302E333915
:1010E000222C3837360D0A002DE9F04104460D4612
:1010F000C8262046FFF750FA87B23A4621460D48E7
:1011000000F02CFD0FE000F03DF848B929460A48F0
:10111000FFF70CFA20B1FFF707FF0020BDE8F081D0
:101120000A2000F075FD3000A6F10101CEB2EAD12F
:101130000120F3E7004400403400002030B589B0BE
:1011400004460D46FFF7F0FE2A4608A101A8FFF766
:10115000BBF80AA101A8FFF7C7FF20B92A4621461C
:10116000074800F0FBFC09B030BD000041542B43A0
:10117000495053454E443D25640D0A003E00000091
:10118000004400400A48008808B901207047084818
:10119000008808490988884203D100200449088052
:1011A000F4E703480088034908800120EEE70000C7
:1011B0002C0000202E0000202DE9F04102460025E1
:1011C0000026002000230024002791F803C00CF023
:1011D0000F0591F803C00CF0100CBCF1000F03D008
:1011E00091F802C04CEA050591F800C0BCF1000F6F
:1011F00031D0146800202BE04FF0010C0CFA00F302
:10120000B1F800C00CEA03069E4220D183004FF0E3
:101210000F0C0CFA03F7BC4305FA03FC4CEA040478
:1012200091F803C0BCF1280F06D14FF0010C0CFA65
:1012300000FCC2F814C00AE091F803C0BCF1480FEA
:1012400005D14FF0010C0CFA00FCC2F810C0401C94
:101250000828D1D31460B1F800C0BCF1FF0F34DD11
:10126000546800202EE000F1080C4FF0010808FA45
:101270000CF3B1F800C00CEA03069E4221D18300B2
:101280004FF00F0C0CFA03F7BC4305FA03FC4CEAD1
:10129000040491F803C0BCF1280F05D100F1080C3B
:1012A00008FA0CF8C2F8148091F803C0BCF1480F9A
:1012B00007D100F1080C4FF0010808FA0CF8C2F849
:1012C0001080401C0828CED35460BDE8F0814161F5
:1012D0007047016170470AB1016100E041617047E8
:1012E00000BFFEE710B54FF4A06000F045F800F035
:1012F0006DFC4FF4E13000F0DBFB00F0AFFC10BD03
:1013000000BFFEE77047000070B5002100230F22E8
:10131000C47804B3154C246804F4E064C4F5E064B4
:10132000210AC1F10403CA40447804FA03F1847825
:101330001440214309010E4C0678A155047804F0AD
:101340001F050124AC4005786D11AD0005F1E025C5
:10135000C5F8004109E0047804F01F050124AC4001
:10136000044D0678761145F8264070BD0CED00E07E
:1013700000E400E080E100E002490143024A11601C
:10138000704700000000FA050CED00E07FB500207A
:10139000009001900290039001256B462A021BA148
:1013A00022A0FFF7F3FB50BB019A91B20098FFF720
:1013B000C5FEFA20FFF7C6FD0446ECB12046FFF754
:1013C000B0FD202818D12046FFF7A8FD0A2811D229
:1013D000DFE800F0050708090A0B0C0D0E0F0025C9
:1013E00009E008E007E006E005E004E003E002E0D1
:1013F00001E000E000BF00BF6846FFF72CFB15B11D
:10140000012004B070BD0020FBE70000394F3862B6
:1014100030746E6F6D4D6B336C6C6D7572366A36F1
:101420005A7261694653453D000000003537363534
:1014300039303339300000001FB5044600200090D9
:101440000190029003900CA12046FFF781F8002044
:101450000090019002900390084809A10268684634
:10146000FEF732FF69462046FFF7B5F82046FFF742
:1014700093F8C0B204B010BD2C3B00003000002037
:1014800066656E677368616E2C25643B0000000022
:1014900070B58AB004460020069007900890099025
:1014A0000590049003900290002600252046FFF747
:1014B00038FD0646902E15D0A02E1BD102A803ABF6
:1014C00004AA05A900902046FFF7BDFC054645B9D2
:1014D00006A80090BDF81010DDE902320598FFF76C
:1014E000F4FA0AE0E078552802D12079AA2800D041
:1014F00003E000BF4FF0FF3500BF00BFFFF714FD52
:10150000681C08B90AB070BD12A10398FFF70EF865
:1015100018B102211248FFF7DCFE12A10398FFF771
:1015200005F818B102210E48FFF7D1FEA02E0ED10A
:101530006DB90598FEF7A1FE0398FEF79EFE079A87
:1015400091B20698FFF7FAFD06A8FFF784FA00BFEC
:10155000D8E7000066656E677368616E3100000051
:101560000008014066656E677368616E30000000B8
:1015700030B5A5B000202190229023902490002423
:101580000025802101A8FFF799F801A8FFF754FF73
:101590000446E4B121A8052300222146009010460C
:1015A000FFF76AFB98B908E001A8415D229A501C38
:1015B000229021988154681C05B2A542F4DB229A3E
:1015C00091B22198FFF7BAFD21A8FFF744FA25B0A0
:1015D00030BD704729B1064AD2690243044BDA6133
:1015E00004E0034AD2698243014BDA61704700008C
:1015F0000010024029B1064A92690243044B9A61E5
:1016000004E0034A92698243014B9A6170470000EB
:101610000010024030B500210022002400232D4D8F
:101620006D6805F00C0121B1042905D0082923D1EA
:1016300005E0294D056022E0274D05601FE0254D9E
:101640006D6805F47012234D6D6805F48034022531
:1016500005EB92421CB9214D554305600BE01D4D31
:101660006D6805F400351DB11C4D5543056002E061
:10167000194D5543056002E0174D056000BF00BFDE
:10168000144D6D6805F0F0010909154D6B5C056896
:10169000DD4045600F4D6D6805F4E061090A104DAD
:1016A0006B5C4568DD4085600A4D6D6805F46051EE
:1016B000C90A0B4D6B5C4568DD40C560054D6D6822
:1016C00005F44041890B074D6B5CC568B5FBF3F52C
:1016D000056130BD0010024000127A0000093D0093
:1016E0000000002010000020F0B503460124002671
:1016F00000250020086000BF1046571CBAB21D5CD0
:1017000005F07F07086807FB04000860E401761C09
:10171000042E02D94FF0FF30F0BD05F08000002804
:10172000EAD11046F8E7704710B500F001F810BD97
:101730000CB50020019000903348006840F48030E0
:101740003149086000BF3048006800F40030009064
:101750000198401C0190009818B90198B0F5A06F4D
:10176000F1D12948006800F4003010B10120009048
:1017700001E0002000900098012843D12348006830
:1017800040F01000214908600846006820F003007E
:1017900008600846006840F0020008601A48406887
:1017A000194948600846406848600846406840F467
:1017B000806048600846406820F47C104860084615
:1017C000406840F4E81048600846006840F08070C7
:1017D000086000BF0C48006800F000700028F9D0D5
:1017E0000948406820F003000749486008464068FF
:1017F00040F00200486000BF0348406800F00C0061
:101800000828F9D10CBD0000001002400020024061
:10181000042808D14FF0E021096941F004014FF09C
:10182000E022116107E04FF0E021096921F0040195
:101830004FF0E022116170477047000010B5134867
:10184000006840F0010011490860084640681049EE
:1018500008400E494860084600680E4908400B4998
:1018600008600846006820F4802008600846406848
:1018700020F4FE0048604FF41F008860FFF754FF1B
:101880004FF000600449086010BD000000100240E5
:101890000000FFF8FFFFF6FE08ED00E010B540F293
:1018A00025510E4800F042F8B0B10D48008880285C
:1018B00002D300200A4908800848001D0088C1B2F0
:1018C000074802880088401C054B18800548815451
:1018D0002021024800F008F810BD0000004400403C
:1018E0002C0000203400002001F40072B2F5007FCB
:1018F00000D100BFCA430280704721B1828942F4FF
:101900000052828104E082894DF6FF731A40828181
:10191000704702460020B1F5007F00D100BF138858
:101920000B400BB1012000E00020704770B502466B
:10193000002400230025002040F66A16B14200D1A1
:1019400000BFC1F3421501F01F03012606FA03F39D
:10195000012D02D19689334006E0022D02D1168A6C
:10196000334001E0968A33400C12012606FA04F453
:101970001688344013B10CB1012000E0002070BD86
:10198000F0B50346002400260025002040F66A1723
:10199000B94200D100BF1846C1F3421401F01F063E
:1019A000012707FA06F5012C01D10C3004E0022CC6
:1019B00001D1103000E014301AB107682F430760DE
:1019C00002E00768AF430760F0BD00002DE9F04773
:1019D00086B005460E460024A24600BFA146002759
:1019E000B08900B100BF2F462C8A4CF6FF7004402E
:1019F000F08804432C82AC894EF6F3100440B08882
:101A000031890843718908430443AC81AC8A4FF69D
:101A1000FF400440B0890443AC8201A8FFF7FAFDFF
:101A20001F48874202D1DDF810A001E0DDF80CA0CC
:101A3000A88900F4004040B10AEBCA0000EB0A108C
:101A400031684900B0FBF1F807E00AEBCA0000EB8F
:101A50000A1031688900B0FBF1F86420B8FBF0F09F
:101A600004012009642101FB1089A88900F40040C9
:101A700040B1322000EBC900B0FBF1F000F00700EC
:101A8000044308E0322000EB09106421B0FBF1F0C0
:101A900000F00F0004432C8106B0BDE8F087000081
:101AA00000380140C1F308028280704700BFFEE7A2
:101AB00010B586B0044601210420FFF79BFD0121EB
:101AC0004804FFF787FD18208DF817000420ADF8B3
:101AD000140003208DF8160005A91E48FFF76CFBC3
:101AE00004208DF817000820ADF8140003208DF8AD
:101AF000160005A91748FFF75FFB01940020ADF819
:101B000010000C20ADF80E000020ADF80C00ADF870
:101B10000A00ADF8080001A90F48FFF757FF01219F
:101B20000D48FFF7EAFE012240F225510A48FFF76F
:101B300027FF26208DF8000001208DF803000020EB
:101B40008DF801008DF802006846FFF7DDFB06B056
:101B500010BD000000080140004400402DE9F041A4
:101B600007460C46154600260DE014F8011B3846C2
:101B7000FFF798FF00BF40213846FFF7CAFE002854
:101B8000F9D0701C86B2AE42EFDBBDE8F08170B5D3
:101B900003460024002500BF01F07F05C90909B1F3
:101BA00045F080051046561CB2B21D54641C09B1A4
:101BB000052CF1DB501E80B2024670BD30380A2879
:101BC00001D20120704700207047000010B56FF06F
:101BD0000400FFF71DFE0A4800680A49B0FBF1F057
:101BE000094908700846007800EB4001C1EBC010BD
:101BF0004FF6FF7101EAC0000449088010BD0000E3
:101C00001800002000127A001400002016000020A6
:101C10000146114A12884A434FF0E0235A610022DC
:101C20009A611A46126942F001021A6100BF4FF030
:101C3000E022106900F001021AB100F48032002A9B
:101C4000F5D04FF0E022126922F001024FF0E023BC
:101C50001A6100229A6170471600002008B5012120
:101C60000420FFF7C7FC10208DF803000220ADF818
:101C7000000003208DF8020069460448FFF79CFA33
:101C800002210248FFF723FB08BD000000080140C5
:101C900000250024FFF726FBFFF77CF903E04FF453
:101CA000FA70FFF7B5FFFFF771FB0028F7D115E0D9
:101CB000681C80B20546B0F57A7F04DBFFF758FC5C
:101CC0000025FFF731F90020FFF73CF9044614B175
:101CD0002046FFF7DDFB0A20FFF79AFFE8E7040044
:101CE00000080000000000000002000100001000D9
:101CF000101D000800000020340000006C010008E6
:101D0000441D000834000020E4060000880100089B
:101D10000000000001020304010203040607080991
:101D2000020406080000000000A24A0400000000AF
:101D3000000000000102030406070809000000007B
:041D4000000000009F
:0400000508000131BD
:00000001FF
